{
  "_format": "hh-sol-artifact-1",
  "contractName": "Marketplace",
  "sourceName": "contracts/Marketplace.sol",
  "abi": [
    {
      "inputs": [
        {
          "internalType": "address",
          "name": "_feeTreasury",
          "type": "address"
        },
        {
          "internalType": "uint96",
          "name": "_feeBps",
          "type": "uint96"
        }
      ],
      "stateMutability": "nonpayable",
      "type": "constructor"
    },
    {
      "inputs": [],
      "name": "AccessControlBadConfirmation",
      "type": "error"
    },
    {
      "inputs": [
        {
          "internalType": "address",
          "name": "account",
          "type": "address"
        },
        {
          "internalType": "bytes32",
          "name": "neededRole",
          "type": "bytes32"
        }
      ],
      "name": "AccessControlUnauthorizedAccount",
      "type": "error"
    },
    {
      "inputs": [],
      "name": "ReentrancyGuardReentrantCall",
      "type": "error"
    },
    {
      "anonymous": false,
      "inputs": [
        {
          "indexed": true,
          "internalType": "address",
          "name": "to",
          "type": "address"
        },
        {
          "indexed": false,
          "internalType": "uint256",
          "name": "amount",
          "type": "uint256"
        }
      ],
      "name": "FeeWithdrawn",
      "type": "event"
    },
    {
      "anonymous": false,
      "inputs": [
        {
          "indexed": true,
          "internalType": "uint256",
          "name": "listingId",
          "type": "uint256"
        },
        {
          "indexed": true,
          "internalType": "address",
          "name": "seller",
          "type": "address"
        },
        {
          "indexed": true,
          "internalType": "address",
          "name": "nft",
          "type": "address"
        },
        {
          "indexed": false,
          "internalType": "uint256",
          "name": "tokenId",
          "type": "uint256"
        },
        {
          "indexed": false,
          "internalType": "uint256",
          "name": "price",
          "type": "uint256"
        }
      ],
      "name": "Listed",
      "type": "event"
    },
    {
      "anonymous": false,
      "inputs": [
        {
          "indexed": true,
          "internalType": "uint256",
          "name": "listingId",
          "type": "uint256"
        }
      ],
      "name": "ListingCanceled",
      "type": "event"
    },
    {
      "anonymous": false,
      "inputs": [
        {
          "indexed": true,
          "internalType": "uint256",
          "name": "listingId",
          "type": "uint256"
        },
        {
          "indexed": false,
          "internalType": "uint256",
          "name": "newPrice",
          "type": "uint256"
        }
      ],
      "name": "ListingUpdated",
      "type": "event"
    },
    {
      "anonymous": false,
      "inputs": [
        {
          "indexed": true,
          "internalType": "uint256",
          "name": "listingId",
          "type": "uint256"
        },
        {
          "indexed": true,
          "internalType": "address",
          "name": "buyer",
          "type": "address"
        },
        {
          "indexed": false,
          "internalType": "uint256",
          "name": "price",
          "type": "uint256"
        },
        {
          "indexed": false,
          "internalType": "address",
          "name": "royaltyReceiver",
          "type": "address"
        },
        {
          "indexed": false,
          "internalType": "uint256",
          "name": "royaltyAmount",
          "type": "uint256"
        },
        {
          "indexed": false,
          "internalType": "uint256",
          "name": "feeAmount",
          "type": "uint256"
        },
        {
          "indexed": false,
          "internalType": "uint256",
          "name": "sellerAmount",
          "type": "uint256"
        }
      ],
      "name": "Purchased",
      "type": "event"
    },
    {
      "anonymous": false,
      "inputs": [
        {
          "indexed": false,
          "internalType": "address",
          "name": "operator",
          "type": "address"
        },
        {
          "indexed": true,
          "internalType": "address",
          "name": "from",
          "type": "address"
        },
        {
          "indexed": true,
          "internalType": "uint256",
          "name": "tokenId",
          "type": "uint256"
        },
        {
          "indexed": true,
          "internalType": "address",
          "name": "nftContract",
          "type": "address"
        }
      ],
      "name": "ReceivedNFT",
      "type": "event"
    },
    {
      "anonymous": false,
      "inputs": [
        {
          "indexed": true,
          "internalType": "bytes32",
          "name": "role",
          "type": "bytes32"
        },
        {
          "indexed": true,
          "internalType": "bytes32",
          "name": "previousAdminRole",
          "type": "bytes32"
        },
        {
          "indexed": true,
          "internalType": "bytes32",
          "name": "newAdminRole",
          "type": "bytes32"
        }
      ],
      "name": "RoleAdminChanged",
      "type": "event"
    },
    {
      "anonymous": false,
      "inputs": [
        {
          "indexed": true,
          "internalType": "bytes32",
          "name": "role",
          "type": "bytes32"
        },
        {
          "indexed": true,
          "internalType": "address",
          "name": "account",
          "type": "address"
        },
        {
          "indexed": true,
          "internalType": "address",
          "name": "sender",
          "type": "address"
        }
      ],
      "name": "RoleGranted",
      "type": "event"
    },
    {
      "anonymous": false,
      "inputs": [
        {
          "indexed": true,
          "internalType": "bytes32",
          "name": "role",
          "type": "bytes32"
        },
        {
          "indexed": true,
          "internalType": "address",
          "name": "account",
          "type": "address"
        },
        {
          "indexed": true,
          "internalType": "address",
          "name": "sender",
          "type": "address"
        }
      ],
      "name": "RoleRevoked",
      "type": "event"
    },
    {
      "anonymous": false,
      "inputs": [
        {
          "indexed": true,
          "internalType": "uint256",
          "name": "tokenId",
          "type": "uint256"
        },
        {
          "indexed": false,
          "internalType": "uint256",
          "name": "price",
          "type": "uint256"
        },
        {
          "indexed": true,
          "internalType": "address",
          "name": "buyer",
          "type": "address"
        }
      ],
      "name": "SaleRecordingFailed",
      "type": "event"
    },
    {
      "anonymous": false,
      "inputs": [
        {
          "indexed": true,
          "internalType": "uint256",
          "name": "tokenId",
          "type": "uint256"
        },
        {
          "indexed": false,
          "internalType": "uint256",
          "name": "price",
          "type": "uint256"
        },
        {
          "indexed": true,
          "internalType": "address",
          "name": "buyer",
          "type": "address"
        }
      ],
      "name": "SaleRecordingSuccess",
      "type": "event"
    },
    {
      "inputs": [],
      "name": "ADMIN_ROLE",
      "outputs": [
        {
          "internalType": "bytes32",
          "name": "",
          "type": "bytes32"
        }
      ],
      "stateMutability": "view",
      "type": "function"
    },
    {
      "inputs": [],
      "name": "DEFAULT_ADMIN_ROLE",
      "outputs": [
        {
          "internalType": "bytes32",
          "name": "",
          "type": "bytes32"
        }
      ],
      "stateMutability": "view",
      "type": "function"
    },
    {
      "inputs": [],
      "name": "accruedFees",
      "outputs": [
        {
          "internalType": "uint256",
          "name": "",
          "type": "uint256"
        }
      ],
      "stateMutability": "view",
      "type": "function"
    },
    {
      "inputs": [
        {
          "internalType": "uint256",
          "name": "listingId",
          "type": "uint256"
        }
      ],
      "name": "buy",
      "outputs": [],
      "stateMutability": "payable",
      "type": "function"
    },
    {
      "inputs": [
        {
          "internalType": "uint256",
          "name": "listingId",
          "type": "uint256"
        }
      ],
      "name": "cancelListing",
      "outputs": [],
      "stateMutability": "nonpayable",
      "type": "function"
    },
    {
      "inputs": [],
      "name": "feeTreasury",
      "outputs": [
        {
          "internalType": "address",
          "name": "",
          "type": "address"
        }
      ],
      "stateMutability": "view",
      "type": "function"
    },
    {
      "inputs": [
        {
          "internalType": "uint256",
          "name": "listingId",
          "type": "uint256"
        }
      ],
      "name": "getListing",
      "outputs": [
        {
          "components": [
            {
              "internalType": "address",
              "name": "seller",
              "type": "address"
            },
            {
              "internalType": "address",
              "name": "nft",
              "type": "address"
            },
            {
              "internalType": "uint256",
              "name": "tokenId",
              "type": "uint256"
            },
            {
              "internalType": "uint256",
              "name": "price",
              "type": "uint256"
            },
            {
              "internalType": "bool",
              "name": "active",
              "type": "bool"
            }
          ],
          "internalType": "struct Marketplace.Listing",
          "name": "",
          "type": "tuple"
        }
      ],
      "stateMutability": "view",
      "type": "function"
    },
    {
      "inputs": [
        {
          "internalType": "bytes32",
          "name": "role",
          "type": "bytes32"
        }
      ],
      "name": "getRoleAdmin",
      "outputs": [
        {
          "internalType": "bytes32",
          "name": "",
          "type": "bytes32"
        }
      ],
      "stateMutability": "view",
      "type": "function"
    },
    {
      "inputs": [
        {
          "internalType": "bytes32",
          "name": "role",
          "type": "bytes32"
        },
        {
          "internalType": "address",
          "name": "account",
          "type": "address"
        }
      ],
      "name": "grantRole",
      "outputs": [],
      "stateMutability": "nonpayable",
      "type": "function"
    },
    {
      "inputs": [
        {
          "internalType": "bytes32",
          "name": "role",
          "type": "bytes32"
        },
        {
          "internalType": "address",
          "name": "account",
          "type": "address"
        }
      ],
      "name": "hasRole",
      "outputs": [
        {
          "internalType": "bool",
          "name": "",
          "type": "bool"
        }
      ],
      "stateMutability": "view",
      "type": "function"
    },
    {
      "inputs": [],
      "name": "lastListingId",
      "outputs": [
        {
          "internalType": "uint256",
          "name": "",
          "type": "uint256"
        }
      ],
      "stateMutability": "view",
      "type": "function"
    },
    {
      "inputs": [
        {
          "internalType": "address",
          "name": "nft",
          "type": "address"
        },
        {
          "internalType": "uint256",
          "name": "tokenId",
          "type": "uint256"
        },
        {
          "internalType": "uint256",
          "name": "price",
          "type": "uint256"
        }
      ],
      "name": "listToken",
      "outputs": [
        {
          "internalType": "uint256",
          "name": "listingId",
          "type": "uint256"
        }
      ],
      "stateMutability": "nonpayable",
      "type": "function"
    },
    {
      "inputs": [
        {
          "internalType": "uint256",
          "name": "",
          "type": "uint256"
        }
      ],
      "name": "listings",
      "outputs": [
        {
          "internalType": "address",
          "name": "seller",
          "type": "address"
        },
        {
          "internalType": "address",
          "name": "nft",
          "type": "address"
        },
        {
          "internalType": "uint256",
          "name": "tokenId",
          "type": "uint256"
        },
        {
          "internalType": "uint256",
          "name": "price",
          "type": "uint256"
        },
        {
          "internalType": "bool",
          "name": "active",
          "type": "bool"
        }
      ],
      "stateMutability": "view",
      "type": "function"
    },
    {
      "inputs": [],
      "name": "marketplaceFeeBps",
      "outputs": [
        {
          "internalType": "uint96",
          "name": "",
          "type": "uint96"
        }
      ],
      "stateMutability": "view",
      "type": "function"
    },
    {
      "inputs": [
        {
          "internalType": "address",
          "name": "operator",
          "type": "address"
        },
        {
          "internalType": "address",
          "name": "from",
          "type": "address"
        },
        {
          "internalType": "uint256",
          "name": "tokenId",
          "type": "uint256"
        },
        {
          "internalType": "bytes",
          "name": "data",
          "type": "bytes"
        }
      ],
      "name": "onERC721Received",
      "outputs": [
        {
          "internalType": "bytes4",
          "name": "",
          "type": "bytes4"
        }
      ],
      "stateMutability": "nonpayable",
      "type": "function"
    },
    {
      "inputs": [
        {
          "internalType": "bytes32",
          "name": "role",
          "type": "bytes32"
        },
        {
          "internalType": "address",
          "name": "callerConfirmation",
          "type": "address"
        }
      ],
      "name": "renounceRole",
      "outputs": [],
      "stateMutability": "nonpayable",
      "type": "function"
    },
    {
      "inputs": [
        {
          "internalType": "bytes32",
          "name": "role",
          "type": "bytes32"
        },
        {
          "internalType": "address",
          "name": "account",
          "type": "address"
        }
      ],
      "name": "revokeRole",
      "outputs": [],
      "stateMutability": "nonpayable",
      "type": "function"
    },
    {
      "inputs": [
        {
          "internalType": "address",
          "name": "t",
          "type": "address"
        }
      ],
      "name": "setFeeTreasury",
      "outputs": [],
      "stateMutability": "nonpayable",
      "type": "function"
    },
    {
      "inputs": [
        {
          "internalType": "uint96",
          "name": "feeBps",
          "type": "uint96"
        }
      ],
      "name": "setMarketplaceFeeBps",
      "outputs": [],
      "stateMutability": "nonpayable",
      "type": "function"
    },
    {
      "inputs": [
        {
          "internalType": "bytes4",
          "name": "interfaceId",
          "type": "bytes4"
        }
      ],
      "name": "supportsInterface",
      "outputs": [
        {
          "internalType": "bool",
          "name": "",
          "type": "bool"
        }
      ],
      "stateMutability": "view",
      "type": "function"
    },
    {
      "inputs": [
        {
          "internalType": "uint256",
          "name": "listingId",
          "type": "uint256"
        },
        {
          "internalType": "uint256",
          "name": "newPrice",
          "type": "uint256"
        }
      ],
      "name": "updateListing",
      "outputs": [],
      "stateMutability": "nonpayable",
      "type": "function"
    },
    {
      "inputs": [],
      "name": "withdrawFees",
      "outputs": [],
      "stateMutability": "nonpayable",
      "type": "function"
    }
  ],
  "bytecode": "0x60806040523480156200001157600080fd5b5060405162001b2f38038062001b2f833981016040819052620000349162000174565b600180556001600160a01b038216620000805760405162461bcd60e51b815260206004820152600a602482015269074726561737572793d360b41b604482015260640160405180910390fd5b6200008d600033620000c5565b506001600160601b03166001600160a01b039091166c01000000000000000000000000026001600160601b03191617600255620001c9565b6000828152602081815260408083206001600160a01b038516845290915281205460ff166200016a576000838152602081815260408083206001600160a01b03861684529091529020805460ff19166001179055620001213390565b6001600160a01b0316826001600160a01b0316847f2f8788117e7eff1d82e926ec794901d17c78024a50270940304540a733656f0d60405160405180910390a45060016200016e565b5060005b92915050565b600080604083850312156200018857600080fd5b82516001600160a01b0381168114620001a057600080fd5b60208401519092506001600160601b0381168114620001be57600080fd5b809150509250929050565b61195680620001d96000396000f3fe6080604052600436106101355760003560e01c806375b238fc116100ab578063bfa37e371161006f578063bfa37e3714610430578063c27f0ab614610450578063d3929c8a14610470578063d547741f146104a8578063d96a094a146104c8578063de74e57b146104db57600080fd5b806375b238fc146103c55780637e07590d146103da578063872d082a146103fa57806391d1485414610410578063a217fddf146103c557600080fd5b80632f2ff15d116100fd5780632f2ff15d146102fb578063305a67a81461031b57806336568abe1461033b578063476343ee1461035b57806360dc234014610370578063682c2058146103af57600080fd5b80630179ea881461013a57806301ffc9a71461015c578063107a274a14610191578063150b7a0214610284578063248a9ca3146102bd575b600080fd5b34801561014657600080fd5b5061015a61015536600461165a565b610569565b005b34801561016857600080fd5b5061017c61017736600461167c565b61067b565b60405190151581526020015b60405180910390f35b34801561019d57600080fd5b506102376101ac3660046116ad565b6040805160a08101825260008082526020820181905291810182905260608101829052608081019190915250600090815260056020908152604091829020825160a08101845281546001600160a01b039081168252600183015416928101929092526002810154928201929092526003820154606082015260049091015460ff161515608082015290565b604051610188919081516001600160a01b03908116825260208084015190911690820152604080830151908201526060808301519082015260809182015115159181019190915260a00190565b34801561029057600080fd5b506102a461029f3660046116db565b6106b2565b6040516001600160e01b03199091168152602001610188565b3480156102c957600080fd5b506102ed6102d83660046116ad565b60009081526020819052604090206001015490565b604051908152602001610188565b34801561030757600080fd5b5061015a61031636600461177a565b61070c565b34801561032757600080fd5b5061015a6103363660046116ad565b610737565b34801561034757600080fd5b5061015a61035636600461177a565b610947565b34801561036757600080fd5b5061015a61097f565b34801561037c57600080fd5b5060025461039790600160601b90046001600160a01b031681565b6040516001600160a01b039091168152602001610188565b3480156103bb57600080fd5b506102ed60035481565b3480156103d157600080fd5b506102ed600081565b3480156103e657600080fd5b506102ed6103f53660046117aa565b610ac5565b34801561040657600080fd5b506102ed60045481565b34801561041c57600080fd5b5061017c61042b36600461177a565b610e22565b34801561043c57600080fd5b5061015a61044b3660046117df565b610e4b565b34801561045c57600080fd5b5061015a61046b3660046117fc565b610ec2565b34801561047c57600080fd5b50600254610490906001600160601b031681565b6040516001600160601b039091168152602001610188565b3480156104b457600080fd5b5061015a6104c336600461177a565b610f3f565b61015a6104d63660046116ad565b610f64565b3480156104e757600080fd5b506105346104f63660046116ad565b600560205260009081526040902080546001820154600283015460038401546004909401546001600160a01b03938416949390921692909160ff1685565b604080516001600160a01b0396871681529590941660208601529284019190915260608301521515608082015260a001610188565b6000828152600560205260409020600481015460ff166105ba5760405162461bcd60e51b81526020600482015260076024820152662161637469766560c81b60448201526064015b60405180910390fd5b80546001600160a01b031633146106005760405162461bcd60e51b815260206004820152600a6024820152693737ba1039b2b63632b960b11b60448201526064016105b1565b6000821161063a5760405162461bcd60e51b8152602060048201526007602482015266070726963653d360cc1b60448201526064016105b1565b6003810182905560405182815283907f66bcde9f7aec9b81719a4fdec54cbafbf6c834d1f2f989d9cd2134dab8d0c0de9060200160405180910390a2505050565b60006001600160e01b03198216637965db0b60e01b14806106ac57506301ffc9a760e01b6001600160e01b03198316145b92915050565b6040516001600160a01b03868116825260009133918691908816907f52605b1e9703020a7078620f058c7a794d599d63970d798b31c8cc88958c77a79060200160405180910390a450630a85bd0160e11b95945050505050565b600082815260208190526040902060010154610727816114ec565b61073183836114f6565b50505050565b61073f611588565b6000818152600560205260409020600481015460ff1661078f5760405162461bcd60e51b815260206004820152600b60248201526a206e6f742061637469766560a81b60448201526064016105b1565b80546001600160a01b031633146107d55760405162461bcd60e51b815260206004820152600a6024820152693737ba1039b2b63632b960b11b60448201526064016105b1565b600181015460028201546040516331a9108f60e11b8152600481019190915230916001600160a01b031690636352211e90602401602060405180830381865afa158015610826573d6000803e3d6000fd5b505050506040513d601f19601f8201168201806040525081019061084a9190611825565b6001600160a01b0316146108935760405162461bcd60e51b815260206004820152601060248201526f36b0b935b2ba103737ba1037bbb732b960811b60448201526064016105b1565b6004818101805460ff1916905560018201546002830154604051632142170760e11b8152309381019390935233602484015260448301526001600160a01b0316906342842e0e90606401600060405180830381600087803b1580156108f757600080fd5b505af115801561090b573d6000803e3d6000fd5b50506040518492507f5d7a33421ffa4bc07eb8929c5ace6393d3aa5ec3775e4e2f442527876b7dbe889150600090a25061094460018055565b50565b6001600160a01b03811633146109705760405163334bd91960e11b815260040160405180910390fd5b61097a82826115b2565b505050565b600061098a816114ec565b610992611588565b600254600354600160601b9091046001600160a01b031690806109e15760405162461bcd60e51b81526020600482015260076024820152666e6f206665657360c81b60448201526064016105b1565b600060038190556040516001600160a01b0384169083908381818185875af1925050503d8060008114610a30576040519150601f19603f3d011682016040523d82523d6000602084013e610a35565b606091505b5050905080610a765760405162461bcd60e51b815260206004820152600d60248201526c1dda5d1a191c985dc819985a5b609a1b60448201526064016105b1565b826001600160a01b03167f78473f3f373f7673597f4f0fa5873cb4d375fea6d4339ad6b56dbd411513cb3f83604051610ab191815260200190565b60405180910390a250505061094460018055565b6000808211610b005760405162461bcd60e51b8152602060048201526007602482015266070726963653d360cc1b60448201526064016105b1565b6040516331a9108f60e11b81526004810184905233906001600160a01b03861690636352211e90602401602060405180830381865afa158015610b47573d6000803e3d6000fd5b505050506040513d601f19601f82011682018060405250810190610b6b9190611825565b6001600160a01b031614610bad5760405162461bcd60e51b81526020600482015260096024820152683737ba1037bbb732b960b91b60448201526064016105b1565b60405163020604bf60e21b81526004810184905230906001600160a01b0386169063081812fc90602401602060405180830381865afa158015610bf4573d6000803e3d6000fd5b505050506040513d601f19601f82011682018060405250810190610c189190611825565b6001600160a01b03161480610c96575060405163e985e9c560e01b81523360048201523060248201526001600160a01b0385169063e985e9c590604401602060405180830381865afa158015610c72573d6000803e3d6000fd5b505050506040513d601f19601f82011682018060405250810190610c969190611842565b610cd15760405162461bcd60e51b815260206004820152600c60248201526b1b9bdd08185c1c1c9bdd995960a21b60448201526064016105b1565b604051632142170760e11b8152336004820152306024820152604481018490526001600160a01b038516906342842e0e90606401600060405180830381600087803b158015610d1f57600080fd5b505af1158015610d33573d6000803e3d6000fd5b50505050600460008154610d469061187a565b91829055506040805160a081018252338082526001600160a01b0388811660208085018281528587018b8152606087018b815260016080890181815260008c8152600587528b902099518a546001600160a01b0319908116918a16919091178b559451918a018054909516919097161790925551600287015551600386015591516004909401805460ff19169415159490941790935583518881529081018790529394509092909184917f723f73331eaee88eec7fc68ef60ab6ed15e4b90d0472b55eb92fa43910bab6dd910160405180910390a49392505050565b6000918252602082815260408084206001600160a01b0393909316845291905290205460ff1690565b6000610e56816114ec565b6001600160a01b038216610e995760405162461bcd60e51b815260206004820152600a602482015269074726561737572793d360b41b60448201526064016105b1565b50600280546001600160a01b03909216600160601b026001600160601b03909216919091179055565b6000610ecd816114ec565b6107d0826001600160601b03161115610f175760405162461bcd60e51b815260206004820152600c60248201526b0cccaca40e8dede40d0d2ced60a31b60448201526064016105b1565b50600280546bffffffffffffffffffffffff19166001600160601b0392909216919091179055565b600082815260208190526040902060010154610f5a816114ec565b61073183836115b2565b610f6c611588565b6000818152600560205260409020600481015460ff16610fbc5760405162461bcd60e51b815260206004820152600b60248201526a206e6f742061637469766560a81b60448201526064016105b1565b80600301543414610ffb5760405162461bcd60e51b81526020600482015260096024820152686261642076616c756560b81b60448201526064016105b1565b600181015460028201546040516331a9108f60e11b8152600481019190915230916001600160a01b031690636352211e90602401602060405180830381865afa15801561104c573d6000803e3d6000fd5b505050506040513d601f19601f820116820180604052508101906110709190611825565b6001600160a01b0316146110d65760405162461bcd60e51b815260206004820152602760248201527f4d61726b6574706c61636520646f65736e277420686f6c6420746865204e4654604482015266102237b6b0b4b760c91b60648201526084016105b1565b6004818101805460ff1916905560018201546002830154600384015460405163152a902d60e11b815293840191909152602483015260009182916001600160a01b031690632a55205a906044016040805180830381865afa15801561113f573d6000803e3d6000fd5b505050506040513d601f19601f820116820180604052508101906111639190611893565b60025460038601549294509092506000916127109161118d916001600160601b03909116906118c1565b61119791906118d8565b905080600360008282546111ab91906118fa565b925050819055506000818386600301546111c5919061190d565b6111cf919061190d565b9050821561126b576000846001600160a01b03168460405160006040518083038185875af1925050503d8060008114611224576040519150601f19603f3d011682016040523d82523d6000602084013e611229565b606091505b50509050806112695760405162461bcd60e51b815260206004820152600c60248201526b1c9bde585b1d1e4819985a5b60a21b60448201526064016105b1565b505b84546040516000916001600160a01b03169083908381818185875af1925050503d80600081146112b7576040519150601f19603f3d011682016040523d82523d6000602084013e6112bc565b606091505b50509050806112fb5760405162461bcd60e51b815260206004820152600b60248201526a1cd95b1b195c8819985a5b60aa1b60448201526064016105b1565b5060018501546002860154604051632142170760e11b815230600482015233602482015260448101919091526001600160a01b03909116906342842e0e90606401600060405180830381600087803b15801561135657600080fd5b505af115801561136a573d6000803e3d6000fd5b50505050600185015460028601546003870154604051631e4acab760e11b8152600481019290925260248201523360448201526001600160a01b0390911690633c95956e90606401600060405180830381600087803b1580156113cc57600080fd5b505af19250505080156113dd575060015b61143257336001600160a01b031685600201547f64f722397ea9a8665a5ee52fb870bce61873c7c98bdb077f36aa222d888ead23876003015460405161142591815260200190565b60405180910390a361147f565b336001600160a01b031685600201547fec51fc6f2e9530c3371e47547eeacadab20b4b61ee7d5a2338f5db062e452c76876003015460405161147691815260200190565b60405180910390a35b6003850154604080519182526001600160a01b038616602083015281018490526060810183905260808101829052339087907f0278d887a7a4a90f9df373f2242e11be355cb2ea52bad3254fb31ad9c0be16af9060a00160405180910390a3505050505061094460018055565b610944813361161d565b60006115028383610e22565b611580576000838152602081815260408083206001600160a01b03861684529091529020805460ff191660011790556115383390565b6001600160a01b0316826001600160a01b0316847f2f8788117e7eff1d82e926ec794901d17c78024a50270940304540a733656f0d60405160405180910390a45060016106ac565b5060006106ac565b6002600154036115ab57604051633ee5aeb560e01b815260040160405180910390fd5b6002600155565b60006115be8383610e22565b15611580576000838152602081815260408083206001600160a01b0386168085529252808320805460ff1916905551339286917ff6391f5c32d9c69d2a47ea670b442974b53935d1edc7fd64eb21e047a839171b9190a45060016106ac565b6116278282610e22565b6116565760405163e2517d3f60e01b81526001600160a01b0382166004820152602481018390526044016105b1565b5050565b6000806040838503121561166d57600080fd5b50508035926020909101359150565b60006020828403121561168e57600080fd5b81356001600160e01b0319811681146116a657600080fd5b9392505050565b6000602082840312156116bf57600080fd5b5035919050565b6001600160a01b038116811461094457600080fd5b6000806000806000608086880312156116f357600080fd5b85356116fe816116c6565b9450602086013561170e816116c6565b935060408601359250606086013567ffffffffffffffff8082111561173257600080fd5b818801915088601f83011261174657600080fd5b81358181111561175557600080fd5b89602082850101111561176757600080fd5b9699959850939650602001949392505050565b6000806040838503121561178d57600080fd5b82359150602083013561179f816116c6565b809150509250929050565b6000806000606084860312156117bf57600080fd5b83356117ca816116c6565b95602085013595506040909401359392505050565b6000602082840312156117f157600080fd5b81356116a6816116c6565b60006020828403121561180e57600080fd5b81356001600160601b03811681146116a657600080fd5b60006020828403121561183757600080fd5b81516116a6816116c6565b60006020828403121561185457600080fd5b815180151581146116a657600080fd5b634e487b7160e01b600052601160045260246000fd5b60006001820161188c5761188c611864565b5060010190565b600080604083850312156118a657600080fd5b82516118b1816116c6565b6020939093015192949293505050565b80820281158282048414176106ac576106ac611864565b6000826118f557634e487b7160e01b600052601260045260246000fd5b500490565b808201808211156106ac576106ac611864565b818103818111156106ac576106ac61186456fea26469706673582212202b83042e3877f0a2b7e03fe899ba65589162c15518cdcf150103348d4c21392e64736f6c63430008180033",
  "linkReferences": {},
  "deployedLinkReferences": {}
}