{
  "_format": "hh-sol-artifact-1",
  "contractName": "RoyaltySplitter",
  "sourceName": "contracts/RoyaltySplitter.sol",
  "abi": [
    {
      "inputs": [],
      "name": "AccessControlBadConfirmation",
      "type": "error"
    },
    {
      "inputs": [
        {
          "internalType": "address",
          "name": "account",
          "type": "address"
        },
        {
          "internalType": "bytes32",
          "name": "neededRole",
          "type": "bytes32"
        }
      ],
      "name": "AccessControlUnauthorizedAccount",
      "type": "error"
    },
    {
      "inputs": [],
      "name": "ReentrancyGuardReentrantCall",
      "type": "error"
    },
    {
      "inputs": [
        {
          "internalType": "address",
          "name": "token",
          "type": "address"
        }
      ],
      "name": "SafeERC20FailedOperation",
      "type": "error"
    },
    {
      "anonymous": false,
      "inputs": [
        {
          "indexed": true,
          "internalType": "address",
          "name": "creator",
          "type": "address"
        },
        {
          "indexed": true,
          "internalType": "address",
          "name": "treasury",
          "type": "address"
        },
        {
          "indexed": false,
          "internalType": "uint16",
          "name": "creatorBps",
          "type": "uint16"
        },
        {
          "indexed": false,
          "internalType": "uint16",
          "name": "treasuryBps",
          "type": "uint16"
        }
      ],
      "name": "Initialized",
      "type": "event"
    },
    {
      "anonymous": false,
      "inputs": [
        {
          "indexed": true,
          "internalType": "address",
          "name": "from",
          "type": "address"
        },
        {
          "indexed": false,
          "internalType": "uint256",
          "name": "amount",
          "type": "uint256"
        }
      ],
      "name": "Received",
      "type": "event"
    },
    {
      "anonymous": false,
      "inputs": [
        {
          "indexed": true,
          "internalType": "bytes32",
          "name": "role",
          "type": "bytes32"
        },
        {
          "indexed": true,
          "internalType": "bytes32",
          "name": "previousAdminRole",
          "type": "bytes32"
        },
        {
          "indexed": true,
          "internalType": "bytes32",
          "name": "newAdminRole",
          "type": "bytes32"
        }
      ],
      "name": "RoleAdminChanged",
      "type": "event"
    },
    {
      "anonymous": false,
      "inputs": [
        {
          "indexed": true,
          "internalType": "bytes32",
          "name": "role",
          "type": "bytes32"
        },
        {
          "indexed": true,
          "internalType": "address",
          "name": "account",
          "type": "address"
        },
        {
          "indexed": true,
          "internalType": "address",
          "name": "sender",
          "type": "address"
        }
      ],
      "name": "RoleGranted",
      "type": "event"
    },
    {
      "anonymous": false,
      "inputs": [
        {
          "indexed": true,
          "internalType": "bytes32",
          "name": "role",
          "type": "bytes32"
        },
        {
          "indexed": true,
          "internalType": "address",
          "name": "account",
          "type": "address"
        },
        {
          "indexed": true,
          "internalType": "address",
          "name": "sender",
          "type": "address"
        }
      ],
      "name": "RoleRevoked",
      "type": "event"
    },
    {
      "anonymous": false,
      "inputs": [
        {
          "indexed": false,
          "internalType": "uint16",
          "name": "creatorBps",
          "type": "uint16"
        },
        {
          "indexed": false,
          "internalType": "uint16",
          "name": "treasuryBps",
          "type": "uint16"
        }
      ],
      "name": "SplitsUpdated",
      "type": "event"
    },
    {
      "anonymous": false,
      "inputs": [
        {
          "indexed": true,
          "internalType": "address",
          "name": "token",
          "type": "address"
        },
        {
          "indexed": true,
          "internalType": "address",
          "name": "from",
          "type": "address"
        },
        {
          "indexed": false,
          "internalType": "uint256",
          "name": "amount",
          "type": "uint256"
        }
      ],
      "name": "TokenReceived",
      "type": "event"
    },
    {
      "anonymous": false,
      "inputs": [
        {
          "indexed": true,
          "internalType": "address",
          "name": "to",
          "type": "address"
        },
        {
          "indexed": false,
          "internalType": "uint256",
          "name": "amount",
          "type": "uint256"
        }
      ],
      "name": "Withdraw",
      "type": "event"
    },
    {
      "anonymous": false,
      "inputs": [
        {
          "indexed": true,
          "internalType": "address",
          "name": "token",
          "type": "address"
        },
        {
          "indexed": true,
          "internalType": "address",
          "name": "to",
          "type": "address"
        },
        {
          "indexed": false,
          "internalType": "uint256",
          "name": "amount",
          "type": "uint256"
        }
      ],
      "name": "WithdrawToken",
      "type": "event"
    },
    {
      "inputs": [],
      "name": "DEFAULT_ADMIN_ROLE",
      "outputs": [
        {
          "internalType": "bytes32",
          "name": "",
          "type": "bytes32"
        }
      ],
      "stateMutability": "view",
      "type": "function"
    },
    {
      "inputs": [],
      "name": "creator",
      "outputs": [
        {
          "internalType": "address",
          "name": "",
          "type": "address"
        }
      ],
      "stateMutability": "view",
      "type": "function"
    },
    {
      "inputs": [],
      "name": "creatorBps",
      "outputs": [
        {
          "internalType": "uint16",
          "name": "",
          "type": "uint16"
        }
      ],
      "stateMutability": "view",
      "type": "function"
    },
    {
      "inputs": [
        {
          "internalType": "address",
          "name": "token",
          "type": "address"
        },
        {
          "internalType": "uint256",
          "name": "amount",
          "type": "uint256"
        }
      ],
      "name": "depositToken",
      "outputs": [],
      "stateMutability": "nonpayable",
      "type": "function"
    },
    {
      "inputs": [
        {
          "internalType": "address",
          "name": "",
          "type": "address"
        },
        {
          "internalType": "address",
          "name": "",
          "type": "address"
        }
      ],
      "name": "erc20Balance",
      "outputs": [
        {
          "internalType": "uint256",
          "name": "",
          "type": "uint256"
        }
      ],
      "stateMutability": "view",
      "type": "function"
    },
    {
      "inputs": [
        {
          "internalType": "address",
          "name": "",
          "type": "address"
        }
      ],
      "name": "ethBalance",
      "outputs": [
        {
          "internalType": "uint256",
          "name": "",
          "type": "uint256"
        }
      ],
      "stateMutability": "view",
      "type": "function"
    },
    {
      "inputs": [
        {
          "internalType": "bytes32",
          "name": "role",
          "type": "bytes32"
        }
      ],
      "name": "getRoleAdmin",
      "outputs": [
        {
          "internalType": "bytes32",
          "name": "",
          "type": "bytes32"
        }
      ],
      "stateMutability": "view",
      "type": "function"
    },
    {
      "inputs": [
        {
          "internalType": "bytes32",
          "name": "role",
          "type": "bytes32"
        },
        {
          "internalType": "address",
          "name": "account",
          "type": "address"
        }
      ],
      "name": "grantRole",
      "outputs": [],
      "stateMutability": "nonpayable",
      "type": "function"
    },
    {
      "inputs": [
        {
          "internalType": "bytes32",
          "name": "role",
          "type": "bytes32"
        },
        {
          "internalType": "address",
          "name": "account",
          "type": "address"
        }
      ],
      "name": "hasRole",
      "outputs": [
        {
          "internalType": "bool",
          "name": "",
          "type": "bool"
        }
      ],
      "stateMutability": "view",
      "type": "function"
    },
    {
      "inputs": [
        {
          "internalType": "address",
          "name": "_creator",
          "type": "address"
        },
        {
          "internalType": "address",
          "name": "_treasury",
          "type": "address"
        },
        {
          "internalType": "uint16",
          "name": "_creatorBps",
          "type": "uint16"
        },
        {
          "internalType": "uint16",
          "name": "_treasuryBps",
          "type": "uint16"
        }
      ],
      "name": "init",
      "outputs": [],
      "stateMutability": "nonpayable",
      "type": "function"
    },
    {
      "inputs": [
        {
          "internalType": "bytes32",
          "name": "role",
          "type": "bytes32"
        },
        {
          "internalType": "address",
          "name": "callerConfirmation",
          "type": "address"
        }
      ],
      "name": "renounceRole",
      "outputs": [],
      "stateMutability": "nonpayable",
      "type": "function"
    },
    {
      "inputs": [
        {
          "internalType": "bytes32",
          "name": "role",
          "type": "bytes32"
        },
        {
          "internalType": "address",
          "name": "account",
          "type": "address"
        }
      ],
      "name": "revokeRole",
      "outputs": [],
      "stateMutability": "nonpayable",
      "type": "function"
    },
    {
      "inputs": [
        {
          "internalType": "uint16",
          "name": "_creatorBps",
          "type": "uint16"
        },
        {
          "internalType": "uint16",
          "name": "_treasuryBps",
          "type": "uint16"
        }
      ],
      "name": "setSplits",
      "outputs": [],
      "stateMutability": "nonpayable",
      "type": "function"
    },
    {
      "inputs": [
        {
          "internalType": "bytes4",
          "name": "interfaceId",
          "type": "bytes4"
        }
      ],
      "name": "supportsInterface",
      "outputs": [
        {
          "internalType": "bool",
          "name": "",
          "type": "bool"
        }
      ],
      "stateMutability": "view",
      "type": "function"
    },
    {
      "inputs": [],
      "name": "treasury",
      "outputs": [
        {
          "internalType": "address",
          "name": "",
          "type": "address"
        }
      ],
      "stateMutability": "view",
      "type": "function"
    },
    {
      "inputs": [],
      "name": "treasuryBps",
      "outputs": [
        {
          "internalType": "uint16",
          "name": "",
          "type": "uint16"
        }
      ],
      "stateMutability": "view",
      "type": "function"
    },
    {
      "inputs": [],
      "name": "withdraw",
      "outputs": [],
      "stateMutability": "nonpayable",
      "type": "function"
    },
    {
      "inputs": [
        {
          "internalType": "address",
          "name": "token",
          "type": "address"
        }
      ],
      "name": "withdrawToken",
      "outputs": [],
      "stateMutability": "nonpayable",
      "type": "function"
    },
    {
      "stateMutability": "payable",
      "type": "receive"
    }
  ],
  "bytecode": "0x608060405234801561001057600080fd5b5060018055611148806100246000396000f3fe60806040526004361061010d5760003560e01c806361d027b311610095578063a217fddf11610064578063a217fddf14610433578063d547741f14610448578063d8f3790f14610468578063de90e29b14610495578063eeaf1a06146104b757600080fd5b806361d027b31461039b57806389476069146103bb5780638d1f0d1c146103db57806391d148541461041357600080fd5b80632f2ff15d116100dc5780632f2ff15d146102f1578063338b5dea1461031157806336568abe146103315780633ccfd60b146103515780634dc10ea11461036657600080fd5b806301ffc9a71461022457806302d05d3f146102595780631b586aff14610291578063248a9ca3146102b357600080fd5b3661021f57600354600160c01b900460ff166101445760405162461bcd60e51b815260040161013b90610ec8565b60405180910390fd5b3460000361014e57005b6003546000906127109061016d90600160a01b900461ffff1634610f00565b6101779190610f17565b905060006101858234610f39565b6002546001600160a01b03166000908152600460205260408120805492935084929091906101b4908490610f4c565b90915550506003546001600160a01b0316600090815260046020526040812080548392906101e3908490610f4c565b909155505060405134815233907f88a5966d370b9919b20f3e2c13ff65706f196a4e32cc2c12bf57088f885258749060200160405180910390a2005b600080fd5b34801561023057600080fd5b5061024461023f366004610f5f565b6104d7565b60405190151581526020015b60405180910390f35b34801561026557600080fd5b50600254610279906001600160a01b031681565b6040516001600160a01b039091168152602001610250565b34801561029d57600080fd5b506102b16102ac366004610fbe565b61050e565b005b3480156102bf57600080fd5b506102e36102ce366004611012565b60009081526020819052604090206001015490565b604051908152602001610250565b3480156102fd57600080fd5b506102b161030c36600461102b565b6106d5565b34801561031d57600080fd5b506102b161032c366004611057565b610700565b34801561033d57600080fd5b506102b161034c36600461102b565b6108ca565b34801561035d57600080fd5b506102b1610902565b34801561037257600080fd5b5060035461038890600160b01b900461ffff1681565b60405161ffff9091168152602001610250565b3480156103a757600080fd5b50600354610279906001600160a01b031681565b3480156103c757600080fd5b506102b16103d6366004611081565b610a2d565b3480156103e757600080fd5b506102e36103f636600461109c565b600560209081526000928352604080842090915290825290205481565b34801561041f57600080fd5b5061024461042e36600461102b565b610b10565b34801561043f57600080fd5b506102e3600081565b34801561045457600080fd5b506102b161046336600461102b565b610b39565b34801561047457600080fd5b506102e3610483366004611081565b60046020526000908152604090205481565b3480156104a157600080fd5b5060035461038890600160a01b900461ffff1681565b3480156104c357600080fd5b506102b16104d23660046110c6565b610b5e565b60006001600160e01b03198216637965db0b60e01b148061050857506301ffc9a760e01b6001600160e01b03198316145b92915050565b600354600160c01b900460ff161561055e5760405162461bcd60e51b8152602060048201526013602482015272185b1c9958591e481a5b9a5d1a585b1a5e9959606a1b604482015260640161013b565b6001600160a01b0384161580159061057e57506001600160a01b03831615155b6105b95760405162461bcd60e51b815260206004820152600c60248201526b7a65726f206164647265737360a01b604482015260640161013b565b6105c381836110f0565b61ffff16612710146106065760405162461bcd60e51b815260206004820152600c60248201526b073706c6974213d31303030360a41b604482015260640161013b565b600280546001600160a01b0319166001600160a01b038681169190911790915560038054600160c01b9286166001600160b01b031990911617600160a01b61ffff868116919091029190911762ffffff60b01b1916600160b01b9185169190910260ff60c01b191617919091179055610680600033610c55565b506040805161ffff8085168252831660208201526001600160a01b0380861692908716917f9f2ed0b4f99cb854b32ddcdca0834777796add863314be1685b7fb33712ef227910160405180910390a350505050565b6000828152602081905260409020600101546106f081610ce7565b6106fa8383610c55565b50505050565b610708610cf1565b600354600160c01b900460ff166107315760405162461bcd60e51b815260040161013b90610ec8565b6001600160a01b0382166107715760405162461bcd60e51b81526020600482015260076024820152660746f6b656e3d360cc1b604482015260640161013b565b600081116107ac5760405162461bcd60e51b81526020600482015260086024820152670616d6f756e743d360c41b604482015260640161013b565b6107c16001600160a01b038316333084610d1b565b600354600090612710906107e090600160a01b900461ffff1684610f00565b6107ea9190610f17565b905060006107f88284610f39565b6001600160a01b038086166000908152600560209081526040808320600254909416835292905290812080549293508492909190610837908490610f4c565b90915550506001600160a01b03808516600090815260056020908152604080832060035490941683529290529081208054839290610876908490610f4c565b909155505060405183815233906001600160a01b038616907fa83965f0e7c5e026e57c9ba2dd91e4ebcca352f2d514498c1e9ed23ba65386009060200160405180910390a350506108c660018055565b5050565b6001600160a01b03811633146108f35760405163334bd91960e11b815260040160405180910390fd5b6108fd8282610d82565b505050565b61090a610cf1565b33600090815260046020526040902054806109525760405162461bcd60e51b81526020600482015260086024820152676e6f2066756e647360c01b604482015260640161013b565b336000818152600460205260408082208290555190919083908381818185875af1925050503d80600081146109a3576040519150601f19603f3d011682016040523d82523d6000602084013e6109a8565b606091505b50509050806109eb5760405162461bcd60e51b815260206004820152600f60248201526e1d1c985b9cd9995c8819985a5b1959608a1b604482015260640161013b565b60405182815233907f884edad9ce6fa2440d8a54cc123490eb96d2768479d49ff9c7366125a94243649060200160405180910390a25050610a2b60018055565b565b610a35610cf1565b6001600160a01b038116600090815260056020908152604080832033845290915290205480610a915760405162461bcd60e51b81526020600482015260086024820152676e6f2066756e647360c01b604482015260640161013b565b6001600160a01b0382166000818152600560209081526040808320338085529252822091909155610ac3919083610ded565b60405181815233906001600160a01b038416907f037238854fe57fbf51f09946f854fc3916fe83938d6521f09bd05463839f13049060200160405180910390a350610b0d60018055565b50565b6000918252602082815260408084206001600160a01b0393909316845291905290205460ff1690565b600082815260208190526040902060010154610b5481610ce7565b6106fa8383610d82565b6000610b6981610ce7565b600354600160c01b900460ff16610b925760405162461bcd60e51b815260040161013b90610ec8565b610b9c82846110f0565b61ffff1661271014610bdf5760405162461bcd60e51b815260206004820152600c60248201526b073706c6974213d31303030360a41b604482015260640161013b565b6003805463ffffffff60a01b1916600160a01b61ffff86811691820261ffff60b01b191692909217600160b01b928616928302179092556040805192835260208301919091527f1a3919fc9755005eeb7593ccc4e3832a96663067fdd2a4201a84d3dcc1cc96d0910160405180910390a1505050565b6000610c618383610b10565b610cdf576000838152602081815260408083206001600160a01b03861684529091529020805460ff19166001179055610c973390565b6001600160a01b0316826001600160a01b0316847f2f8788117e7eff1d82e926ec794901d17c78024a50270940304540a733656f0d60405160405180910390a4506001610508565b506000610508565b610b0d8133610e1e565b600260015403610d1457604051633ee5aeb560e01b815260040160405180910390fd5b6002600155565b6040516001600160a01b0384811660248301528381166044830152606482018390526106fa9186918216906323b872dd906084015b604051602081830303815290604052915060e01b6020820180516001600160e01b038381831617835250505050610e57565b6000610d8e8383610b10565b15610cdf576000838152602081815260408083206001600160a01b0386168085529252808320805460ff1916905551339286917ff6391f5c32d9c69d2a47ea670b442974b53935d1edc7fd64eb21e047a839171b9190a4506001610508565b6040516001600160a01b038381166024830152604482018390526108fd91859182169063a9059cbb90606401610d50565b610e288282610b10565b6108c65760405163e2517d3f60e01b81526001600160a01b03821660048201526024810183905260440161013b565b600080602060008451602086016000885af180610e7a576040513d6000823e3d81fd5b50506000513d91508115610e92578060011415610e9f565b6001600160a01b0384163b155b156106fa57604051635274afe760e01b81526001600160a01b038516600482015260240161013b565b6020808252600890820152671b9bdd081a5b9a5d60c21b604082015260600190565b634e487b7160e01b600052601160045260246000fd5b808202811582820484141761050857610508610eea565b600082610f3457634e487b7160e01b600052601260045260246000fd5b500490565b8181038181111561050857610508610eea565b8082018082111561050857610508610eea565b600060208284031215610f7157600080fd5b81356001600160e01b031981168114610f8957600080fd5b9392505050565b80356001600160a01b0381168114610fa757600080fd5b919050565b803561ffff81168114610fa757600080fd5b60008060008060808587031215610fd457600080fd5b610fdd85610f90565b9350610feb60208601610f90565b9250610ff960408601610fac565b915061100760608601610fac565b905092959194509250565b60006020828403121561102457600080fd5b5035919050565b6000806040838503121561103e57600080fd5b8235915061104e60208401610f90565b90509250929050565b6000806040838503121561106a57600080fd5b61107383610f90565b946020939093013593505050565b60006020828403121561109357600080fd5b610f8982610f90565b600080604083850312156110af57600080fd5b6110b883610f90565b915061104e60208401610f90565b600080604083850312156110d957600080fd5b6110e283610fac565b915061104e60208401610fac565b61ffff81811683821601908082111561110b5761110b610eea565b509291505056fea2646970667358221220b7a035d272d59fc1f0fe82c5801b49c7d55b73d977183250a98791886928d92864736f6c63430008180033",
  "linkReferences": {},
  "deployedLinkReferences": {}
}